{
	"_format": "hh-sol-artifact-1",
	"contractName": "Service",
	"sourceName": "contracts/Service.sol",
	"abi": [
		{
			"inputs": [],
			"stateMutability": "nonpayable",
			"type": "constructor"
		},
		{
			"anonymous": false,
			"inputs": [
				{
					"indexed": false,
					"internalType": "uint256",
					"name": "startTime",
					"type": "uint256"
				},
				{
					"indexed": false,
					"internalType": "string",
					"name": "facilityName",
					"type": "string"
				}
			],
			"name": "Booked",
			"type": "event"
		},
		{
			"anonymous": false,
			"inputs": [
				{
					"indexed": false,
					"internalType": "uint256",
					"name": "pollId",
					"type": "uint256"
				},
				{
					"indexed": false,
					"internalType": "string",
					"name": "topic",
					"type": "string"
				},
				{
					"indexed": false,
					"internalType": "string",
					"name": "description",
					"type": "string"
				}
			],
			"name": "PollCreated",
			"type": "event"
		},
		{
			"anonymous": false,
			"inputs": [
				{
					"indexed": false,
					"internalType": "uint256",
					"name": "pollId",
					"type": "uint256"
				},
				{
					"indexed": false,
					"internalType": "bool",
					"name": "choice",
					"type": "bool"
				}
			],
			"name": "Voted",
			"type": "event"
		},
		{
			"inputs": [
				{
					"internalType": "uint256",
					"name": "_startTime",
					"type": "uint256"
				},
				{
					"internalType": "string",
					"name": "_facilityName",
					"type": "string"
				}
			],
			"name": "bookFacility",
			"outputs": [],
			"stateMutability": "nonpayable",
			"type": "function"
		},
		{
			"inputs": [
				{
					"internalType": "string",
					"name": "_topic",
					"type": "string"
				},
				{
					"internalType": "string",
					"name": "_description",
					"type": "string"
				},
				{
					"internalType": "uint256",
					"name": "_createdAt",
					"type": "uint256"
				}
			],
			"name": "createPoll",
			"outputs": [],
			"stateMutability": "nonpayable",
			"type": "function"
		},
		{
			"inputs": [
				{
					"internalType": "uint256",
					"name": "",
					"type": "uint256"
				}
			],
			"name": "facilityBookings",
			"outputs": [
				{
					"internalType": "uint256",
					"name": "startTime",
					"type": "uint256"
				},
				{
					"internalType": "string",
					"name": "facilityName",
					"type": "string"
				},
				{
					"internalType": "address",
					"name": "user",
					"type": "address"
				}
			],
			"stateMutability": "view",
			"type": "function"
		},
		{
			"inputs": [
				{
					"internalType": "uint256",
					"name": "_pollId",
					"type": "uint256"
				}
			],
			"name": "getPollDetails",
			"outputs": [
				{
					"internalType": "string",
					"name": "",
					"type": "string"
				},
				{
					"internalType": "string",
					"name": "",
					"type": "string"
				},
				{
					"internalType": "uint256",
					"name": "",
					"type": "uint256"
				},
				{
					"internalType": "uint256",
					"name": "",
					"type": "uint256"
				},
				{
					"internalType": "uint256",
					"name": "",
					"type": "uint256"
				},
				{
					"internalType": "uint256",
					"name": "",
					"type": "uint256"
				}
			],
			"stateMutability": "view",
			"type": "function"
		},
		{
			"inputs": [],
			"name": "getPolls",
			"outputs": [
				{
					"internalType": "uint256[]",
					"name": "",
					"type": "uint256[]"
				}
			],
			"stateMutability": "view",
			"type": "function"
		},
		{
			"inputs": [],
			"name": "getUserBookings",
			"outputs": [
				{
					"components": [
						{
							"internalType": "uint256",
							"name": "startTime",
							"type": "uint256"
						},
						{
							"internalType": "string",
							"name": "facilityName",
							"type": "string"
						},
						{
							"internalType": "address",
							"name": "user",
							"type": "address"
						}
					],
					"internalType": "struct Service.Booking[]",
					"name": "",
					"type": "tuple[]"
				}
			],
			"stateMutability": "view",
			"type": "function"
		},
		{
			"inputs": [
				{
					"internalType": "uint256",
					"name": "_startTime",
					"type": "uint256"
				},
				{
					"internalType": "string",
					"name": "_facilityName",
					"type": "string"
				}
			],
			"name": "isFacilityBooked",
			"outputs": [
				{
					"internalType": "bool",
					"name": "",
					"type": "bool"
				}
			],
			"stateMutability": "view",
			"type": "function"
		},
		{
			"inputs": [],
			"name": "pollCount",
			"outputs": [
				{
					"internalType": "uint256",
					"name": "",
					"type": "uint256"
				}
			],
			"stateMutability": "view",
			"type": "function"
		},
		{
			"inputs": [
				{
					"internalType": "uint256",
					"name": "",
					"type": "uint256"
				}
			],
			"name": "polls",
			"outputs": [
				{
					"internalType": "string",
					"name": "topic",
					"type": "string"
				},
				{
					"internalType": "string",
					"name": "description",
					"type": "string"
				},
				{
					"internalType": "uint256",
					"name": "yesCount",
					"type": "uint256"
				},
				{
					"internalType": "uint256",
					"name": "noCount",
					"type": "uint256"
				},
				{
					"internalType": "uint256",
					"name": "totalCount",
					"type": "uint256"
				},
				{
					"internalType": "uint256",
					"name": "createdAt",
					"type": "uint256"
				}
			],
			"stateMutability": "view",
			"type": "function"
		},
		{
			"inputs": [
				{
					"internalType": "address",
					"name": "",
					"type": "address"
				},
				{
					"internalType": "uint256",
					"name": "",
					"type": "uint256"
				}
			],
			"name": "userBookings",
			"outputs": [
				{
					"internalType": "uint256",
					"name": "startTime",
					"type": "uint256"
				},
				{
					"internalType": "string",
					"name": "facilityName",
					"type": "string"
				},
				{
					"internalType": "address",
					"name": "user",
					"type": "address"
				}
			],
			"stateMutability": "view",
			"type": "function"
		},
		{
			"inputs": [
				{
					"internalType": "uint256",
					"name": "_pollId",
					"type": "uint256"
				},
				{
					"internalType": "bool",
					"name": "_choice",
					"type": "bool"
				}
			],
			"name": "vote",
			"outputs": [],
			"stateMutability": "nonpayable",
			"type": "function"
		}
	],
	"bytecode": "0x608060405234801561001057600080fd5b50611db5806100206000396000f3fe608060405234801561001057600080fd5b50600436106100a95760003560e01c8063ac2f007411610071578063ac2f007414610157578063c73293cf1461018c578063c9d27afe146101bc578063cebc046f146101d8578063da597230146101f6578063e3a4d3a214610228576100a9565b8063120fe89b146100ae5780635dbb8063146100cc5780639207891d146100e85780639a0040e414610106578063a52ee5f41461013b575b600080fd5b6100b661025a565b6040516100c3919061109d565b60405180910390f35b6100e660048036038101906100e19190611245565b610302565b005b6100f0610486565b6040516100fd91906112df565b60405180910390f35b610120600480360381019061011b91906112fa565b61048c565b604051610132969594939291906113a6565b60405180910390f35b61015560048036038101906101509190611415565b610688565b005b610171600480360381019061016c91906112fa565b6108ac565b604051610183969594939291906113a6565b60405180910390f35b6101a660048036038101906101a19190611415565b6109f8565b6040516101b3919061148c565b60405180910390f35b6101d660048036038101906101d191906114d3565b610b84565b005b6101e0610c76565b6040516101ed91906116b0565b60405180910390f35b610210600480360381019061020b91906112fa565b610e04565b60405161021f939291906116e1565b60405180910390f35b610242600480360381019061023d919061174b565b610ee6565b604051610251939291906116e1565b60405180910390f35b6060600060025467ffffffffffffffff81111561027a576102796110ee565b5b6040519080825280602002602001820160405280156102a85781602001602082028036833780820191505090505b5090506000600190505b60025481116102fa5780826001836102ca91906117ba565b815181106102db576102da6117ee565b5b60200260200101818152505080806102f29061181d565b9150506102b2565b508091505090565b42620151806000803373ffffffffffffffffffffffffffffffffffffffff1673ffffffffffffffffffffffffffffffffffffffff168152602001908152602001600020546103509190611865565b10610390576040517f08c379a00000000000000000000000000000000000000000000000000000000081526004016103879061190b565b60405180910390fd5b600260008154809291906103a39061181d565b91905055506040518060c001604052808481526020018381526020016000815260200160008152602001600081526020018281525060016000600254815260200190815260200160002060008201518160000190816104029190611b37565b5060208201518160010190816104189190611b37565b5060408201518160020155606082015181600301556080820151816004015560a082015181600501559050507fb05cc96db600c46e8713ed6c0ed07bcaf11d5067b1ba2494959164f9e4a4dd76600254848460405161047993929190611c09565b60405180910390a1505050565b60025481565b6060806000806000806000871180156104a757506002548711155b6104e6576040517f08c379a00000000000000000000000000000000000000000000000000000000081526004016104dd90611c9a565b60405180910390fd5b6000600160008981526020019081526020016000206040518060c00160405290816000820180546105169061195a565b80601f01602080910402602001604051908101604052809291908181526020018280546105429061195a565b801561058f5780601f106105645761010080835404028352916020019161058f565b820191906000526020600020905b81548152906001019060200180831161057257829003601f168201915b505050505081526020016001820180546105a89061195a565b80601f01602080910402602001604051908101604052809291908181526020018280546105d49061195a565b80156106215780601f106105f657610100808354040283529160200191610621565b820191906000526020600020905b81548152906001019060200180831161060457829003601f168201915b505050505081526020016002820154815260200160038201548152602001600482015481526020016005820154815250509050806000015181602001518260400151836060015184608001518560a001519650965096509650965096505091939550919395565b61069282826109f8565b156106d2576040517f08c379a00000000000000000000000000000000000000000000000000000000081526004016106c990611d06565b60405180910390fd5b600060405180606001604052808481526020018381526020013373ffffffffffffffffffffffffffffffffffffffff16815250905060038190806001815401808255809150506001900390600052602060002090600302016000909190919091506000820151816000015560208201518160010190816107529190611b37565b5060408201518160020160006101000a81548173ffffffffffffffffffffffffffffffffffffffff021916908373ffffffffffffffffffffffffffffffffffffffff1602179055505050600460003373ffffffffffffffffffffffffffffffffffffffff1673ffffffffffffffffffffffffffffffffffffffff1681526020019081526020016000208190806001815401808255809150506001900390600052602060002090600302016000909190919091506000820151816000015560208201518160010190816108249190611b37565b5060408201518160020160006101000a81548173ffffffffffffffffffffffffffffffffffffffff021916908373ffffffffffffffffffffffffffffffffffffffff16021790555050507ff5207f101446d13a0287da22105986da85daff90af565671e9b7b285a8bc5bb0838360405161089f929190611d26565b60405180910390a1505050565b60016020528060005260406000206000915090508060000180546108cf9061195a565b80601f01602080910402602001604051908101604052809291908181526020018280546108fb9061195a565b80156109485780601f1061091d57610100808354040283529160200191610948565b820191906000526020600020905b81548152906001019060200180831161092b57829003601f168201915b50505050509080600101805461095d9061195a565b80601f01602080910402602001604051908101604052809291908181526020018280546109899061195a565b80156109d65780601f106109ab576101008083540402835291602001916109d6565b820191906000526020600020905b8154815290600101906020018083116109b957829003601f168201915b5050505050908060020154908060030154908060040154908060050154905086565b600080600090505b600380549050811015610b7857600060038281548110610a2357610a226117ee565b5b906000526020600020906003020160405180606001604052908160008201548152602001600182018054610a569061195a565b80601f0160208091040260200160405190810160405280929190818152602001828054610a829061195a565b8015610acf5780601f10610aa457610100808354040283529160200191610acf565b820191906000526020600020905b815481529060010190602001808311610ab257829003601f168201915b505050505081526020016002820160009054906101000a900473ffffffffffffffffffffffffffffffffffffffff1673ffffffffffffffffffffffffffffffffffffffff1673ffffffffffffffffffffffffffffffffffffffff168152505090508380519060200120816020015180519060200120148015610b545750848160000151145b15610b6457600192505050610b7e565b508080610b709061181d565b915050610a00565b50600090505b92915050565b600082118015610b9657506002548211155b610bd5576040517f08c379a0000000000000000000000000000000000000000000000000000000008152600401610bcc90611c9a565b60405180910390fd5b8015610c0c57600160008381526020019081526020016000206002016000815480929190610c029061181d565b9190505550610c39565b600160008381526020019081526020016000206003016000815480929190610c339061181d565b91905055505b7fa63b4de27d795de0f5597f73747fac943bc2864c1ef9fa81100950198d5030b38282604051610c6a929190611d56565b60405180910390a15050565b6060600460003373ffffffffffffffffffffffffffffffffffffffff1673ffffffffffffffffffffffffffffffffffffffff168152602001908152602001600020805480602002602001604051908101604052809291908181526020016000905b82821015610dfb578382906000526020600020906003020160405180606001604052908160008201548152602001600182018054610d149061195a565b80601f0160208091040260200160405190810160405280929190818152602001828054610d409061195a565b8015610d8d5780601f10610d6257610100808354040283529160200191610d8d565b820191906000526020600020905b815481529060010190602001808311610d7057829003601f168201915b505050505081526020016002820160009054906101000a900473ffffffffffffffffffffffffffffffffffffffff1673ffffffffffffffffffffffffffffffffffffffff1673ffffffffffffffffffffffffffffffffffffffff168152505081526020019060010190610cd7565b50505050905090565b60038181548110610e1457600080fd5b9060005260206000209060030201600091509050806000015490806001018054610e3d9061195a565b80601f0160208091040260200160405190810160405280929190818152602001828054610e699061195a565b8015610eb65780601f10610e8b57610100808354040283529160200191610eb6565b820191906000526020600020905b815481529060010190602001808311610e9957829003601f168201915b5050505050908060020160009054906101000a900473ffffffffffffffffffffffffffffffffffffffff16905083565b60046020528160005260406000208181548110610f0257600080fd5b906000526020600020906003020160009150915050806000015490806001018054610f2c9061195a565b80601f0160208091040260200160405190810160405280929190818152602001828054610f589061195a565b8015610fa55780601f10610f7a57610100808354040283529160200191610fa5565b820191906000526020600020905b815481529060010190602001808311610f8857829003601f168201915b5050505050908060020160009054906101000a900473ffffffffffffffffffffffffffffffffffffffff16905083565b600081519050919050565b600082825260208201905092915050565b6000819050602082019050919050565b6000819050919050565b61101481611001565b82525050565b6000611026838361100b565b60208301905092915050565b6000602082019050919050565b600061104a82610fd5565b6110548185610fe0565b935061105f83610ff1565b8060005b83811015611090578151611077888261101a565b975061108283611032565b925050600181019050611063565b5085935050505092915050565b600060208201905081810360008301526110b7818461103f565b905092915050565b6000604051905090565b600080fd5b600080fd5b600080fd5b600080fd5b6000601f19601f8301169050919050565b7f4e487b7100000000000000000000000000000000000000000000000000000000600052604160045260246000fd5b611126826110dd565b810181811067ffffffffffffffff82111715611145576111446110ee565b5b80604052505050565b60006111586110bf565b9050611164828261111d565b919050565b600067ffffffffffffffff821115611184576111836110ee565b5b61118d826110dd565b9050602081019050919050565b82818337600083830152505050565b60006111bc6111b784611169565b61114e565b9050828152602081018484840111156111d8576111d76110d8565b5b6111e384828561119a565b509392505050565b600082601f830112611200576111ff6110d3565b5b81356112108482602086016111a9565b91505092915050565b61122281611001565b811461122d57600080fd5b50565b60008135905061123f81611219565b92915050565b60008060006060848603121561125e5761125d6110c9565b5b600084013567ffffffffffffffff81111561127c5761127b6110ce565b5b611288868287016111eb565b935050602084013567ffffffffffffffff8111156112a9576112a86110ce565b5b6112b5868287016111eb565b92505060406112c686828701611230565b9150509250925092565b6112d981611001565b82525050565b60006020820190506112f460008301846112d0565b92915050565b6000602082840312156113105761130f6110c9565b5b600061131e84828501611230565b91505092915050565b600081519050919050565b600082825260208201905092915050565b60005b83811015611361578082015181840152602081019050611346565b60008484015250505050565b600061137882611327565b6113828185611332565b9350611392818560208601611343565b61139b816110dd565b840191505092915050565b600060c08201905081810360008301526113c0818961136d565b905081810360208301526113d4818861136d565b90506113e360408301876112d0565b6113f060608301866112d0565b6113fd60808301856112d0565b61140a60a08301846112d0565b979650505050505050565b6000806040838503121561142c5761142b6110c9565b5b600061143a85828601611230565b925050602083013567ffffffffffffffff81111561145b5761145a6110ce565b5b611467858286016111eb565b9150509250929050565b60008115159050919050565b61148681611471565b82525050565b60006020820190506114a1600083018461147d565b92915050565b6114b081611471565b81146114bb57600080fd5b50565b6000813590506114cd816114a7565b92915050565b600080604083850312156114ea576114e96110c9565b5b60006114f885828601611230565b9250506020611509858286016114be565b9150509250929050565b600081519050919050565b600082825260208201905092915050565b6000819050602082019050919050565b600082825260208201905092915050565b600061155b82611327565b611565818561153f565b9350611575818560208601611343565b61157e816110dd565b840191505092915050565b600073ffffffffffffffffffffffffffffffffffffffff82169050919050565b60006115b482611589565b9050919050565b6115c4816115a9565b82525050565b60006060830160008301516115e2600086018261100b565b50602083015184820360208601526115fa8282611550565b915050604083015161160f60408601826115bb565b508091505092915050565b600061162683836115ca565b905092915050565b6000602082019050919050565b600061164682611513565b611650818561151e565b9350836020820285016116628561152f565b8060005b8581101561169e578484038952815161167f858261161a565b945061168a8361162e565b925060208a01995050600181019050611666565b50829750879550505050505092915050565b600060208201905081810360008301526116ca818461163b565b905092915050565b6116db816115a9565b82525050565b60006060820190506116f660008301866112d0565b8181036020830152611708818561136d565b905061171760408301846116d2565b949350505050565b611728816115a9565b811461173357600080fd5b50565b6000813590506117458161171f565b92915050565b60008060408385031215611762576117616110c9565b5b600061177085828601611736565b925050602061178185828601611230565b9150509250929050565b7f4e487b7100000000000000000000000000000000000000000000000000000000600052601160045260246000fd5b60006117c582611001565b91506117d083611001565b92508282039050818111156117e8576117e761178b565b5b92915050565b7f4e487b7100000000000000000000000000000000000000000000000000000000600052603260045260246000fd5b600061182882611001565b91507fffffffffffffffffffffffffffffffffffffffffffffffffffffffffffffffff820361185a5761185961178b565b5b600182019050919050565b600061187082611001565b915061187b83611001565b92508282019050808211156118935761189261178b565b5b92915050565b7f596f752063616e206f6e6c7920637265617465206f6e6520706f6c6c2070657260008201527f2064617900000000000000000000000000000000000000000000000000000000602082015250565b60006118f5602483611332565b915061190082611899565b604082019050919050565b60006020820190508181036000830152611924816118e8565b9050919050565b7f4e487b7100000000000000000000000000000000000000000000000000000000600052602260045260246000fd5b6000600282049050600182168061197257607f821691505b6020821081036119855761198461192b565b5b50919050565b60008190508160005260206000209050919050565b60006020601f8301049050919050565b600082821b905092915050565b6000600883026119ed7fffffffffffffffffffffffffffffffffffffffffffffffffffffffffffffffff826119b0565b6119f786836119b0565b95508019841693508086168417925050509392505050565b6000819050919050565b6000611a34611a2f611a2a84611001565b611a0f565b611001565b9050919050565b6000819050919050565b611a4e83611a19565b611a62611a5a82611a3b565b8484546119bd565b825550505050565b600090565b611a77611a6a565b611a82818484611a45565b505050565b5b81811015611aa657611a9b600082611a6f565b600181019050611a88565b5050565b601f821115611aeb57611abc8161198b565b611ac5846119a0565b81016020851015611ad4578190505b611ae8611ae0856119a0565b830182611a87565b50505b505050565b600082821c905092915050565b6000611b0e60001984600802611af0565b1980831691505092915050565b6000611b278383611afd565b9150826002028217905092915050565b611b4082611327565b67ffffffffffffffff811115611b5957611b586110ee565b5b611b63825461195a565b611b6e828285611aaa565b600060209050601f831160018114611ba15760008415611b8f578287015190505b611b998582611b1b565b865550611c01565b601f198416611baf8661198b565b60005b82811015611bd757848901518255600182019150602085019450602081019050611bb2565b86831015611bf45784890151611bf0601f891682611afd565b8355505b6001600288020188555050505b505050505050565b6000606082019050611c1e60008301866112d0565b8181036020830152611c30818561136d565b90508181036040830152611c44818461136d565b9050949350505050565b7f496e76616c696420706f6c6c2049440000000000000000000000000000000000600082015250565b6000611c84600f83611332565b9150611c8f82611c4e565b602082019050919050565b60006020820190508181036000830152611cb381611c77565b9050919050565b7f466163696c69747920697320616c726561647920626f6f6b6564000000000000600082015250565b6000611cf0601a83611332565b9150611cfb82611cba565b602082019050919050565b60006020820190508181036000830152611d1f81611ce3565b9050919050565b6000604082019050611d3b60008301856112d0565b8181036020830152611d4d818461136d565b90509392505050565b6000604082019050611d6b60008301856112d0565b611d78602083018461147d565b939250505056fea26469706673582212207b40f6a8dba5b133fb64ce5d623e62bbaaccd25bd0f0823d0a6e5a0b6e8df7f064736f6c63430008110033",
	"linkReferences": {},
	"deployedLinkReferences": {}
}